:040000000C94B902A1
:040048000C944803C9
:040078000C94D2030F
:14008C00920797079C07A107A607AB07B007B507BA07BF0785
:1400A000C407C907CE07D307000000006263640061626300B3
:1400B40099057C055F05420522050205E204C504A804890458
:1400C8004F043304170400000A04FF03D403C9039B037403B7
:1400DC00630354033D032A031B030E03FB02E902D302C30235
:1400F000B7025A040340404040003030303030303030003032
:14010400303030303030300030303030303030300030303087
:14011800303030303000006465766963655F73656C65637494
:14012C002E78796A2E7478743D223122006465766963655F27
:1401400073656C6563742E7864672E7478743D223122006416
:1401540065766963655F73656C6563742E77626C2E747874AB
:140168003D223122006465766963655F73656C6563742E64F0
:14017C0066622E7478743D223122006465766963655F7365C0
:140190006C6563742E6466732E7478743D22312200646576C9
:1401A4006963655F73656C6563742E78796A2E7478743D22C1
:1401B8003022006465766963655F73656C6563742E78646721
:1401CC002E7478743D223022006465766963655F73656C6568
:1401E00063742E77626C2E7478743D22302200646576696377
:1401F400655F73656C6563742E6466622E7478743D2230221A
:14020800006465766963655F73656C6563742E6466732E7486
:14021C0078743D2230220070616765206465766963655F7332
:14023000656C6563740070616765207265636F6E6E6563742F
:140244000070616765206D61696E007061676520636F6E6ED9
:14025800656374696E670061742B7265636F6E6E3D310061C4
:14026C00742B6E65745F636F6D6D69743D310061742B75616C
:1402800072747061636B74696D656F75743D31300061742B40
:14029400756172747061636B6C656E3D36340061742B75613F
:1402A80072743D393630302C382C6E2C310061742B74696DAB
:1402BC00656F75743D300061742B434C706F72743D313233DD
:1402D000340061742B72656D6F7465706F72743D3830383880
:1402E4000061742B72656D6F746569703D31302E322E382E0F
:1402F8003133390061742B6D6F64653D636C69656E74006193
:14030C00742B72656D6F746570726F3D7463700061742B6E6F
:1403200065745F646E733D3230322E39362E3132382E383679
:140334002C3230322E39362E3133342E33330061742B6E652B
:14034800745F69703D31302E322E382E3231322C3235352ED8
:14035C003235352E3235352E302C31302E322E382E323534AD
:140370000061742B64686370633D300061742B776966695FFC
:14038400636F6E663D475441323031372C77706177706132EE
:140398005F6165732C6774613131343630350061742B646854
:1403AC006370643D300061742B6E65746D6F64653D320072CC
:1403C00065735F786979696A692E78796A5F726573332E7455
:1403D40078743D223022007265735F786979696A692E78791A
:1403E8006A5F726573322E7478743D223022007265735F785C
:1403FC0069616F64756775692E7864675F726573322E747830
:14041000743D2230227265735F786979696A692E78796A5F8C
:14042400726573312E7478743D223022007265735F7869611F
:140438006F64756775692E7864675F726573312E7478743D0D
:14044C00223022007265735F776569626F6C752E77626C5FB6
:14046000726573322E7478743D223022007265735F776569DF
:14047400626F6C752E77626C5F726573312E7478743D223058
:1404880022007265735F6469616E66616E62616F2E64666238
:14049C005F726573332E7478743D223022007265735F6469BB
:1404B000616E66616E62616F2E6466625F726573322E7478B3
:1404C400743D223022007265735F6469616E66616E62616F53
:1404D8002E6466625F726573312E7478743D223022007265C6
:1404EC00735F66656E677368616E2E66735F726573342E745A
:1405000078743D223022007265735F66656E677368616E2E29
:1405140066735F726573332E7478743D223022007265735F36
:1405280066656E677368616E2E66735F726573322E74787405
:14053C003D223022007265735F66656E677368616E2E667300
:140550005F726573312E7478743D223022000000000000007E
:0D056400000000000000000000000000008A
:14057200CFEFD0E1CDBFDEBFCE51D0400AEA08830024E9EC36
:14058600F5E017E0E333F10711F00192FBCF0083E8EAF0E004
:14059A00A0E0B1E015E000E00BBFE137F10721F0C895319658
:1405AE000D92F9CF0E948B0AFFCF0E94D80C442755270BC095
:1405C2006627772702C06F5F7F4F6537E4E07E07D0F34F5F46
:1405D6005F4F4017510790F30C94DD0C2224209232072AB895
:1405EA002BB886E08093950084E389B92092900088E98AB96D
:1405FE00089522242092310720929A0020929B0086E080930A
:140612009D0084E3809399002092980088E980939A0008951F
:140626005D9BFECF0CB9089520909B0025FEFCCF00939C0031
:14063A0008954A935A93A80105C0FA010081EEDF4F5F5F4F32
:14064E00FA0120802220B9F70FEFE6DF0FEFE4DF0FEFE2DFC8
:140662005991499108954A935A93A80105C0FA010081DCDFB4
:140676004F5F5F4FFA0120802220B9F70DE0D4DF0AE0D2DF4C
:14068A005991499108950A921A922A923A924A925A926A9267
:14069E007A928A929A920A931A932A933A938A939A93AA9399
:1406B200BA93EA93FA930FB60A920E94E20C2297A0903207CA
:1406C6004CB16BB1862F887109F04FC08CE120903207821564
:1406DA0060F04A3009F039C082E197E0EA2DFF27E80FF91F2A
:1406EE0080818D3081F522242092320782E197E0EA2DFF277C
:14070200E80FF91F208265E010C00EE1162F010383E296E00A
:140716009001280F391F81E496E08001080F191F0E94930CC3
:14072A006A9581E0861768F323E137E00FE516E00E94930C1D
:14073E008EE190E0998388832227332703E117E00E947B0CFA
:140752000EC0209032073324822D8F5F8093320783E197E0C1
:14076600E22DFF27E80FF91F408322960E94E90C09900FBEC3
:14077A00F991E991B991A991999189913991299119910991D7
:14078E0099908990799069905990499039902990199009908D
:1407A20018950A921A922A923A924A925A926A927A928A92DA
:1407B6009A920A931A932A933A938A939A93AA93BA93EA93DE
:1407CA00FA930FB60A920E94E20C2297A090310740919C000F
:1407DE0060919B00862F887109F04FC08CE1209031078215D9
:1407F20060F04A3009F039C084EF96E0EA2DFF27E80FF91F02
:1408060080818D3081F522242092310784EF96E0EA2DFF2754
:14081A00E80FF91F208265E010C00EE1162F01038DE895E0E2
:14082E009001280F391F8BEA95E08001080F191F0E94930C9B
:140842006A9581E0861768F325EF36E009EC15E00E94930CF5
:140856008EE190E0998388832227332705EF16E00E947B0CD2
:14086A000EC0209031073324822D8F5F8093310785EF96E09B
:14087E00E22DFF27E80FF91F408322960E94E90C09900FBEAA
:14089200F991E991B991A991999189913991299119910991BE
:1408A600999089907990699059904990399029901990099074
:1408BA0018953A932A930E94C30C602F2297A888EA88FB8815
:1408CE00CC8841E004E610E070DE613409F03FC01FC08EE19E
:1408E20090E099838883222733270EE11A2D010380018FE599
:1408F60096E0080F191F0E947B0C0C851D859BDE870157DE97
:14090A0043952C2C3324442E55242414350414F401E065C0E8
:14091E000EE11A2D010390018FE596E0280F391F0E851F854A
:140932000E94860C0030010791F68EE190E09983888322276F
:1409460033270EE11A2D010380018FE596E0080F191F0E94AD
:14095A007B0C623409F03FC01FC08EE190E099838883222746
:14096E0033270EE11A2D0103800189EC95E0080F191F0E9485
:140982007B0C0C851D856FDE870115DE43952C2C3324442EE6
:1409960055242414350414F401E023C00EE11A2D01039001CC
:1409AA0089EC95E0280F391F0E851F850E94860C003001071D
:1409BE0091F68EE190E099838883222733270EE11A2D0103BB
:1409D200800189EC95E0080F191F0E947B0C04E610E0E9DD8E
:1409E600002722960E94B80C229608953A932A930E94C30C68
:1409FA00E02E2297A888CA88DB8841E050E068EC70E004E65E
:140A0E0010E0D3DD8E2D813481F50C851D850FDE0DC08B01D5
:140A2200CADD9B0186010E949E0C0417150710F401E058C076
:140A36004F5F5F4F0EE11A2D010390018FE596E0280F391F0C
:140A4A000E851F850E94860C0030010721F78EE190E09983E2
:140A5E008883222733270EE11A2D010380018FE596E0080F1A
:140A7200191F0E947B0C8E2D823481F50C851D85F2DD0DC059
:140A86008B0197DD9B0186010E949E0C0417150710F401E0D1
:140A9A0025C04F5F5F4F0EE11A2D0103900189EC95E0280F1B
:140AAE00391F0E851F850E94860C0030010721F78EE190E042
:140AC20099838883222733270EE11A2D0103800189EC95E0B1
:140AD600080F191F0E947B0C04E610E06ADD002722960E94F2
:140AEA00B80C22960895789477DD85CDAA922697A0903107CC
:140AFE00789470DD7EDD88E293E29D838C8322242A8284E0CC
:140B120091E09983888328E031E002E469DF14C0A0903207B3
:140B260083EF96E0EA2DFF27E80FF91F00817CDD01E416E0D2
:140B3A0096DD04EF11E03BDD2090F506222001F0EBCF2696E4
:140B4E00A990089500000000000000000000000000000000BD
:140B620000000000000000000000000000000000000000007F
:140B76000895ECDFEBDFEACFFCDFFBDFFADFF9DFF8CFFADF7A
:140B8A00F9DFE2CFFCDFFBDFFADFF9DFF8DFF7DFF6DFF5DF12
:140B9E00F4DFF3CF4A935A93A80101C0F1DF1A01415050406E
:140BB2002220D1F73320C1F7599149910895E199FECF202E24
:140BC60033243FBA2EBA2DBBE29AE19A0895E199FECF202ED2
:140BDA0033243FBA2EBAE09A0DB308950E94CE0C58014427B8
:140BEE0009C0042F005FEFDFE42FFF27EA0DFB1D0083439527
:140C02004830A8F30C94D30C0E94CE0C5801442709C0E42F30
:140C1600FF27EA0DFB1D2081042F005FCEDF43954830A8F3CA
:140C2A000C94D30C0E94CE0C5801442709C0042F005ECBDFF3
:140C3E00E42FFF27EA0DFB1D008343954830A8F30C94D30C6D
:140C52000E94CE0C5801442709C0E42FFF27EA0DFB1D20819C
:140C6600042F005EAADF43954830A8F30C94D30C4A934427AE
:140C7A0010C080EC95E0E42FFF27E80FF91F2080222031F466
:140C8E00E42FFF27E80FF91F80E480834395443070F30AE505
:140CA2000E94170304E00E94170300E20E94170300EC15E063
:140CB6000E943403499108950E94780507EA12E00E941E0315
:140CCA000E94D30A36D002E511E088DF0BE511E0A9CF4A931C
:140CDE00442707C00BE20E94170304E610E05ADF43954E31BD
:140CF200B8F344270DC088E291E0E42FFF27EE0FFF1FE80FE5
:140D0600F91F008111810E9434034395413188F304EF11E02C
:140D1A0043DF07EB12E00E94340304EF11E03CDF07EB12E003
:140D2E000E94340304EF11E035DF49910895279707EA12E0C8
:140D42000E941E0322242092760120C086E08E8388EE93E02B
:140D56009D838C8322242A828AE491E0998388832AE431E043
:140D6A0002E40E945E04002341F40DE912E00E941E0381E027
:140D7E008093760106C0ABDF07EA12E00E941E03DFCF279676
:140D920008954A935A9327970EE812E00E941E032EC086E029
:140DA6008E8388EE93E09D838C8322242A828AE491E0998323
:140DBA0088832AE431E002E40E945E040023B1F44091760101
:140DCE0055274130E0E05E0729F04230E0E05E0731F010C05E
:140DE2000DE912E00E941E030BC00BE712E00E941E0306C01A
:140DF60072DF0EE812E00E941E03D1CF27965991499108952F
:140E0A000E94D80C2A9780E08A838B838C838D8380E08E8382
:140E1E008F838887898774C38091C9058A3509F013C18091DC
:140E3200CA05843019F0863009F00CC14091CB055527403116
:140E4600E0E05E07A9F180E190E08417950774F04130E0E03C
:140E5A005E0781F04230E0E05E07D1F04330E0E05E0709F4C1
:140E6E00BCC0C0C04033E0E05E0709F4A5C0BAC02CEC35E0D3
:140E820002E511E00E94930C02E511E0BDDE0DE912E00E9446
:140E96001E03ACC02CEC35E00BE511E00E94930C0BE511E08B
:140EAA00D3DE0DE912E00E941E039EC00E94D30A01E612E022
:140EBE000E941E0307E412E00E941E030DE212E00E941E0319
:140ED20003E112E00E941E0309EF11E00E941E0343E065C07F
:140EE60089EC95E0E42FFF27E80FF91F608177276130E0E0F6
:140EFA007E070CF457C08EE090E0861797070CF451C08CE8AA
:140F0E0090E0FB013197EE0FFF1FE80FF91F27903690F10102
:140F2200099421E004E50E940D0B40C022E004E50E940D0BD5
:140F36003BC023E004E50E940D0B36C024E004E50E940D0B69
:140F4A0031C021E004E50E945F0B2CC022E004E50E945F0BC9
:140F5E0027C023E004E50E945F0B22C021E004E50E94A90B7E
:140F72001DC022E004E50E94A90B18C021E004E50E94E30BFB
:140F860013C022E004E50E94E30B0EC021E004E50E941D0C86
:140F9A0009C022E004E50E941D0C04C023E004E50E941D0C49
:140FAE004395413108F498CF84E08093CA0509EC15E00E94B0
:140FC200340316C00E94D30A0BE712E00E941E0382E0809373
:140FD600760184E08093CA0509EC15E00E94340305C080E062
:140FEA008A838B838C838D832090B605222021F00FED11E00E
:140FFE000E941E032090B705222021F005EC11E00E941E03B8
:141012002090B805222021F00BEA11E00E941E032090B905F3
:14102600222021F001E911E00E941E032090BA05222021F003
:14103A0007E711E00E941E038EE190E0998388832227332757
:14104E0009EC15E00E947B0C80915F068A3509F00CC260918E
:14106200600677276032E0E07E0709F48FC080E290E08617E4
:141076009707BCF06130E0E07E0749F16230E0E07E0761F1E3
:14108A006130E0E07E070CF4BBC16F30E0E07E0709F4B4C1AA
:14109E006031E0E07E0729F1B1C16034E0E07E0709F40CC139
:1410B20080E490E08617970734F06033E0E07E0709F4B3C0AF
:1410C600A1C16035E0E07E0709F44BC19BC121E636E004E66E
:1410DA0011E00E94930C94C121E636E00DE611E00E94930C39
:1410EE008DC144270FC081E696E0E42FFF27E80FF91F808140
:14110200813329F4242F2F5F03E50E940D0B4395443078F3CE
:1411160081E088832091BB050091B6050E94E90A44271DC0BF
:14112A0061E017C080EC95E0E42FFF27E80FF91F2080261694
:14113E0069F48CE091E0E62FFF273197EE0FFF1FE80FF91F36
:14115200008111810E941E03639584E0861730F74395443047
:1411660008F389E090E0998388832227332700EC15E00E9454
:14117A007B0C81E088832091BB0500270E94E90A75DD3EC1F0
:14118E0044270FC081E696E0E42FFF27E80FF91F8081813339
:1411A20029F4242F2F5F03E50E94A90B4395423078F388E0E0
:1411B60088832091BD050091B8050E94E90A44271DC068E034
:1411CA0017C080EC95E0E42FFF27E80FF91F2080261669F4D8
:1411DE008CE091E0E62FFF273197EE0FFF1FE80FF91F008172
:1411F20011810E941E03639589E0861730F74395423008F32A
:1412060089E090E0998388832227332700EC15E00E947B0C27
:14121A0088E088832091BD0500270E94E90A26DDEFC0442701
:14122E000FC081E696E0E42FFF27E80FF91F8081813329F4E6
:14124200242F2F5F03E50E945F0B4395433078F385E088839D
:141256002091BC050091B7050E94E90A44271DC065E017C0CC
:14126A0080EC95E0E42FFF27E80FF91F2080261669F48CE0A2
:14127E0091E0E62FFF273197EE0FFF1FE80FF91F00811181AB
:141292000E941E03639587E0861730F74395433008F389E0B3
:1412A60090E0998388832227332700EC15E00E947B0C85E08B
:1412BA0088832091BC0500270E94E90AD7DCA0C044270FC09A
:1412CE0081E696E0E42FFF27E80FF91F8081813329F4242FC2
:1412E2002F5F03E50E941D0C4395433078F38CE088832091D9
:1412F600BF050091BA050E94E90A44271DC06CE017C080EC64
:14130A0095E0E42FFF27E80FF91F2080261669F48CE091E0FC
:14131E00E62FFF273197EE0FFF1FE80FF91F008111810E94D9
:141332001E0363958EE0861730F74395433008F389E090E03D
:14134600998388832227332700EC15E00E947B0C8CE0888348
:14135A002091BF0500270E94E90A88DC51C044270FC081E638
:14136E0096E0E42FFF27E80FF91F8081813329F4242F2F5FFA
:1413820003E50E94E30B4395423078F38AE088832091BE0541
:141396000091B9050E94E90A44271DC06AE017C080EC95E015
:1413AA00E42FFF27E80FF91F2080261669F48CE091E0E62FBC
:1413BE00FF273197EE0FFF1FE80FF91F008111810E941E032D
:1413D20063958BE0861730F74395423008F389E090E09983A6
:1413E60088832227332700EC15E00E947B0C8AE08883209115
:1413FA00BE0500270E94E90A39DC02C00E94D30A22E531E0F2
:14140E0004E611E00E94860C0030010781F42BE531E00DE6FA
:1414220011E00E94860C0030010739F40BE712E00E941E0385
:1414360082E0809376018EE190E099838883222733270FE519
:14144A0016E00E947B0C89E090E099838883222733270DE6D9
:14145E0011E00E947B0C89E090E0998388832227332700ECD1
:1414720015E00E947B0C80EE93E9A4E0B0E02E803F80488411
:14148600598482159305A405B50550F480E08E838F8388870D
:14149A0089870AE411E00E94340310C081E090E0A0E0B0E0C5
:1414AE002E803F8048845984280E391E4A1E5B1E2E823F8235
:1414C2004886598680E492E4AFE0B0E02A803B804C805D8062
:1414D60082159305A405B50538F480E08A838B838C838D83AA
:1414EA0054DC10C081E090E0A0E0B0E02A803B804C805D80FF
:1414FE00280E391E4A1E5B1E2A823B824C825D828BCC2A963F
:141512000C94DD0CD3DB78CC8AB385658ABB87B3856587BB78
:1415260084B3856584BB809161008560809361008BB385655E
:14153A008BBB88B3856588BB85B3856585BB80916200856035
:14154E008093620008950FEF1FEF24C081E08ABB8BBB222455
:14156200209261002092620001C00000C80101978C0100306F
:141576000107C9F70FEF1FEF22242ABA2BBA84E080936100A6
:14158A008093620001C00000C80101978C0100300107C9F731
:14159E000FEF1FEFDBCF089522242092B9052092BA0520920D
:1415B200B7052092B8052092B6052092BE052092BF052092F0
:1415C600BC052092BD052092BB05A4CF0E94C30CA22EE02EA8
:1415DA00CA8466272E2C2A24A22C442715C00A2D142F0E9450
:1415EE00F60C802F817069F0262E332421016F5F2C2C240EC9
:1416020080EC95E0E42DFF27E80FF91F20824395483048F380
:141616000C94B80C0E94E20C422F602F643529F5142F115071
:14162A0001E00E94F00C2090B605202A2092B605A42EBB245A
:14163E00C5018130E0E09E0769F08230E0E09E0759F0833050
:14165200E0E09E0749F08430E0E09E0739F007C0D89805C0A8
:14166600DA9803C0DC9801C0DE98633519F5142F115001E065
:14167A000E94F00C2090BB05202A2092BB0555274130E0E0E5
:14168E005E0769F04230E0E05E0759F04330E0E05E0749F0D9
:1416A2004430E0E05E0739F007C0D89A05C0DA9A03C0DC9AC7
:1416B60001C0DE9A0C94E90C0E94E20C422F602F643519F51B
:1416CA00142F115001E00E94F00C2090B705202A2092B705C5
:1416DE00A42EBB24C5018130E0E09E0769F08230E0E09E07FB
:1416F20059F08330E0E09E0749F08430E0E09E0731F005C04B
:14170600C09803C0C29801C0C4986335E9F4142F115001E043
:14171A000E94F00C2090BC05202A2092BC0555274130E0E042
:14172E005E0749F04230E0E05E0739F04330E0E05E0729F098
:1417420005C0C09A03C0C29A01C0C49A0C94E90C0E94E20C11
:14175600422F602F6435C9F4142F115001E00E94F00C209056
:14176A00B805202A2092B805A42EBB24C5018130E0E09E0768
:14177E0029F08230E0E09E0719F003C0C69801C0A898633564
:14179200B9F4142F115001E00E94F00C2090BD05202A209205
:1417A600BD0555274130E0E05E0729F04230E0E05E0719F0A2
:1417BA0003C0C69A01C0A89A0C94E90C0E94E20C422F602FD0
:1417CE006435C9F4142F115001E00E94F00C2090B905202AD6
:1417E2002092B905A42EBB24C5018130E0E09E0729F082302B
:1417F600E0E09E0719F003C0AA9801C0AC986335B9F4142FDF
:14180A00115001E00E94F00C2090BE05202A2092BE0555273C
:14181E004130E0E05E0729F04230E0E05E0719F003C0AA9A60
:1418320001C0AC9A0C94E90C0E94E20C422F602F643559F58F
:14184600142F115001E00E94F00C2090BA05202A2092BA0541
:14185A00A42EBB24C5018130E0E09E0769F08230E0E09E077D
:14186E0059F08330E0E09E0769F08430E0E09E0771F00DC065
:14188200AE980BC0809162008E7F8093620005C08091620014
:141896008B7F80936200633549F5142F115001E00E94F00CC6
:1418AA002090BF05202A2092BF0555274130E0E05E0769F08B
:1418BE004230E0E05E0759F04330E0E05E0769F04430E0E011
:1418D2005E0771F00DC0AE9A0BC08091620081608093620093
:1418E60005C0809162008460809362000C94E90C88819981A5
:1418FA008030890729F0E02FF12F21930197E9F70895E02F7A
:14190E00F12FA22FB32F01911D91011B19F41123D1F7002766
:14192200110B0895A02FB12FE22FF32F01900D920020E1F7EE
:141936000895689401C0E894EA92FA928A93EE24FF2480E10C
:14194A00000F111FEE1CFF1CE216F30618F0E21AF30A03959B
:14195E008A95A1F716F40E2D1F2D8991F990E9900895A9903B
:14197200B990C990D990E990F99049915991699179910895EF
:141986007A936A935A934A93FA92EA92DA92CA92BA92AA9221
:14199A0008955A934A93BA92AA920895A990B9904991599167
:1419AE0008957A936A935A934A93089549915991699179914F
:1419C20008957A936A935A934A93BA92AA920895A990B990F9
:1419D60049915991699179910895112319F0000F1A95FBCFD3
:0E19EA000895112319F006951A95FBCF089564
:00000001FF
