:040000000C94B502A5
:040048000C944403CD
:040078000C94CE0313
:14008C008E07930798079D07A207A707AC07B107B607BB07AD
:1400A000C007C507CA07CF07000000006263640061626300C3
:1400B4009205750558053B051B05FB04DB04BE04A10482049F
:1400C800630447042B040F040204F703D303C803960377037C
:1400DC00660357033D032A031B030E03FB02E902D302C3022F
:1400F000B7025A050340404040003030303030303030003031
:14010400303030303030300030303030303030300030303087
:14011800303030303000006465766963655F73656C65637494
:14012C002E78796A2E7478743D223122006465766963655F27
:1401400073656C6563742E7864672E7478743D223122006416
:1401540065766963655F73656C6563742E77626C2E747874AB
:140168003D223122006465766963655F73656C6563742E64F0
:14017C0066622E7478743D223122006465766963655F7365C0
:140190006C6563742E6466732E7478743D22312200646576C9
:1401A4006963655F73656C6563742E78796A2E7478743D22C1
:1401B8003022006465766963655F73656C6563742E78646721
:1401CC002E7478743D223022006465766963655F73656C6568
:1401E00063742E77626C2E7478743D22302200646576696377
:1401F400655F73656C6563742E6466622E7478743D2230221A
:14020800006465766963655F73656C6563742E6466732E7486
:14021C0078743D2230220070616765206465766963655F7332
:14023000656C6563740070616765207265636F6E6E6563742F
:140244000070616765206D61696E007061676520636F6E6ED9
:14025800656374696E670061742B7265636F6E6E3D310061C4
:14026C00742B6E65745F636F6D6D69743D310061742B75616C
:1402800072747061636B74696D656F75743D31300061742B40
:14029400756172747061636B6C656E3D36340061742B75613F
:1402A80072743D393630302C382C6E2C310061742B74696DAB
:1402BC00656F75743D300061742B434C706F72743D313233DD
:1402D000340061742B72656D6F7465706F72743D3830383880
:1402E4000061742B72656D6F746569703D3139322E313638FB
:1402F8002E302E3130330061742B6D6F64653D636C69656EE5
:14030C00740061742B72656D6F746570726F3D7463700061A7
:14032000742B6E65745F646E733D3139322E3136382E302E0D
:14033400312C302E302E302E300061742B6E65745F69703D52
:140348003139322E3136382E302E3231362C3235352E3235B6
:14035C00352E3235352E302C3139322E3136382E302E3100DE
:1403700061742B64686370633D300061742B776966695F6399
:140384006F6E663D475441323031372C6175746F2C677461F2
:140398003131343630350061742B64686370643D30006174DB
:1403AC002B6E65746D6F64653D32007265735F786979696AE1
:1403C000692E78796A5F726573332E7478743D2230220072AA
:1403D40065735F786979696A692E78796A5F726573322E7442
:1403E80078743D223022007265735F786979696A692E787906
:1403FC006A5F726573312E7478743D223022007265735F7849
:1404100069616F64756775692E7864675F726573322E74781B
:14042400743D223022007265735F7869616F64756775692EF9
:140438007864675F726573312E7478743D223022007265730A
:14044C005F776569626F6C752E77626C5F726573322E7478DE
:14046000743D223022007265735F776569626F6C752E7762BC
:140474006C5F726573312E7478743D223022007265735F64E2
:1404880069616E66616E62616F2E6466625F726573332E74E9
:14049C0078743D223022007265735F6469616E66616E626172
:1404B0006F2E6466625F726573322E7478743D2230220072E3
:1404C40065735F6469616E66616E62616F2E6466625F72655A
:1404D80073312E7478743D223022007265735F66656E677371
:1404EC0068616E2E66735F726573342E7478743D22302200A2
:140500007265735F66656E677368616E2E66735F7265733311
:140514002E7478743D223022007265735F66656E677368610F
:140528006E2E66735F726573322E7478743D22302200726559
:14053C00735F66656E677368616E2E66735F726573312E740C
:1405500078743D2230220000000000000000000000000000FA
:14056400000000000000CFEFD0E1CDBFDEBFCE51D0400AEAC8
:1405780008830024E2ECF5E017E0EC32F10711F00192FBCFB2
:14058C000083E8EAF0E0A0E0B1E015E000E00BBFEA36F1076E
:1405A00021F0C89531960D92F9CF0E948C0AFFCF0E94230DD3
:1405B400442755270BC06627772702C06F5F7F4F6537E4E098
:1405C8007E07D0F34F5F5F4F4017510790F30C94280D22242E
:1405DC0020922B072AB82BB886E08093950084E389B92092F9
:1405F000900088E98AB90895222420922A0720929A002092EF
:140604009B0086E080939D0084E3809399002092980088E963
:1406180080939A0008955D9BFECF0CB9089520909B0025FEEF
:14062C00FCCF00939C0008954A935A93A80105C0FA0100816F
:14064000EEDF4F5F5F4FFA0120802220B9F70FEFE6DF0FEF2F
:14065400E4DF0FEFE2DF5991499108954A935A93A80105C077
:14066800FA010081DCDF4F5F5F4FFA0120802220B9F70DE071
:14067C00D4DF0AE0D2DF5991499108950A921A922A923A92EB
:140690004A925A926A927A928A929A920A931A932A933A936A
:1406A4008A939A93AA93BA93EA93FA930FB60A920E942D0D27
:1406B8002297A0902B074CB16BB1862F887109F04FC08CE1D7
:1406CC0020902B07821560F04A3009F039C08BE097E0EA2DEC
:1406E000FF27E80FF91F80818D3081F5222420922B078BE008
:1406F40097E0EA2DFF27E80FF91F208265E010C00EE1162F44
:1407080001038CE196E09001280F391F8AE396E08001080F5B
:14071C00191F0E94DE0C6A9581E0861768F32CE037E008E59D
:1407300016E00E94DE0C8EE190E099838883222733270CE09E
:1407440017E00E94C60C0EC020902B073324822D8F5F80937F
:140758002B078CE097E0E22DFF27E80FF91F408322960E9417
:14076C00340D09900FBEF991E991B991A9919991899139913C
:14078000299119910991999089907990699059904990399098
:1407940029901990099018950A921A922A923A924A925A9211
:1407A8006A927A928A929A920A931A932A933A938A939A93CF
:1407BC00AA93BA93EA93FA930FB60A920E942D0D2297A0906F
:1407D0002A0740919C0060919B00862F887109F04FC08CE1C8
:1407E40020902A07821560F04A3009F039C08DEE96E0EA2DC5
:1407F800FF27E80FF91F80818D3081F5222420922A078DEEE0
:14080C0096E0EA2DFF27E80FF91F208265E010C00EE1162F2B
:14082000010386E895E09001280F391F84EA95E08001080F42
:14083400191F0E94DE0C6A9581E0861768F32EEE36E002EC74
:1408480015E00E94DE0C8EE190E099838883222733270EEE76
:14085C0016E00E94C60C0EC020902A073324822D8F5F809368
:140870002A078EEE96E0E22DFF27E80FF91F408322960E94F0
:14088400340D09900FBEF991E991B991A99199918991399123
:1408980029911991099199908990799069905990499039907F
:1408AC0029901990099018953A932A930E940E0D602F229701
:1408C000A888EA88FB88CC8841E004E610E070DE613409F0D4
:1408D4003FC01FC08EE190E099838883222733270EE11A2D53
:1408E8000103800188E596E0080F191F0E94C60C0C851D859E
:1408FC009BDE870157DE43952C2C3324442E552424143504CF
:1409100014F401E065C00EE11A2D0103900188E596E0280FE0
:14092400391F0E851F850E94D10C0030010791F68EE190E013
:1409380099838883222733270EE11A2D0103800188E596E043
:14094C00080F191F0E94C60C623409F03FC01FC08EE190E088
:1409600099838883222733270EE11A2D0103800182EC95E01B
:14097400080F191F0E94C60C0C851D856FDE870115DE4395D9
:140988002C2C3324442E55242414350414F401E023C00EE195
:14099C001A2D0103900182EC95E0280F391F0E851F850E9420
:1409B000D10C0030010791F68EE190E09983888322273327EE
:1409C4000EE11A2D0103800182EC95E0080F191F0E94C60CBE
:1409D80004E610E0E9DD002722960E94030D229608953A93B8
:1409EC002A930E940E0DE02E2297A888CA88DB8841E050E080
:140A000068EC70E004E610E0D3DD8E2D813481F50C851D859B
:140A14000FDE0DC08B01CADD9B0186010E94E90C04171507F0
:140A280010F401E058C04F5F5F4F0EE11A2D0103900188E529
:140A3C0096E0280F391F0E851F850E94D10C0030010721F79B
:140A50008EE190E099838883222733270EE11A2D010380012E
:140A640088E596E0080F191F0E94C60C8E2D823481F50C8560
:140A78001D85F2DD0DC08B0197DD9B0186010E94E90C041757
:140A8C00150710F401E025C04F5F5F4F0EE11A2D0103900149
:140AA00082EC95E0280F391F0E851F850E94D10C00300107E2
:140AB40021F78EE190E099838883222733270EE11A2D010333
:140AC800800182EC95E0080F191F0E94C60C04E610E06ADDD2
:140ADC00002722960E94030D22960895789477DD85CDAA9232
:140AF0002697A0902A07789470DD7EDD88E293E29D838C8312
:140B040022242A8284E091E09983888328E031E002E469DFA8
:140B180014C0A0902B078CEE96E0EA2DFF27E80FF91F0081D6
:140B2C007CDD0AE316E096DD04EF11E03BDD2090EE06222024
:140B400001F0EBCF2696A99008950000000000000000000064
:140B540000000000000000000000000000000000000000008D
:140B68000000000000000895ECDFEBDFEACFFCDFFBDFFADF00
:140B7C00F9DFF8CFFADFF9DFE2CFFCDFFBDFFADFF9DFF8DF27
:140B9000F7DFF6DFF5DFF4DFF3CF4A935A93A80101C0F1DF39
:140BA4001A01415050402220D1F73320C1F75991499108958B
:140BB800E199FECF202E33243FBA2EBA2DBBE29AE19A0895E0
:140BCC00E199FECF202E33243FBA2EBAE09A0DB308950E94CF
:140BE000190D5801442709C0042F005FEFDFE42FFF27EA0DBE
:140BF400FB1D008343954830A8F30C941E0D0E94190D58017B
:140C0800442709C0E42FFF27EA0DFB1D2081042F005FCEDF7C
:140C1C0043954830A8F30C941E0D0E94190D5801442709C0B9
:140C3000042F005ECBDFE42FFF27EA0DFB1D0083439548305A
:140C4400A8F30C941E0D0E94190D5801442709C0E42FFF27A8
:140C5800EA0DFB1D2081042F005EAADF43954830A8F30C9433
:140C6C001E0D4A93442710C089EB95E0E42FFF27E80FF91F00
:140C80002080222031F4E42FFF27E80FF91F80E480834395D2
:140C9400443070F30AE50E94130305E00E94130300E20E94AD
:140CA800130309EB15E00E943003499108950E94740507EAE1
:140CBC0012E00E941A030E94260B36D002E511E088DF0BE56B
:140CD00011E0A9CF4A93442707C00BE20E94130304E610E019
:140CE4005ADF43954E31B8F344270DC088E291E0E42FFF2775
:140CF800EE0FFF1FE80FF91F008111810E943003439541318C
:140D0C0088F304EF11E043DF07EB12E00E94300304EF11E0B5
:140D20003CDF07EB12E00E94300304EF11E035DF499108957C
:140D3400279707EA12E00E941A0322242092760120C086E096
:140D48008E8388EE93E09D838C8322242A828AE491E0998381
:140D5C0088832AE431E002E40E945A04002341F40DE912E033
:140D70000E941A0381E08093760106C0ABDF07EA12E00E94F0
:140D84001A03DFCF279608954A935A9327970EE812E00E9424
:140D98001A032EC086E08E8388EE93E09D838C8322242A82BB
:140DAC008AE491E0998388832AE431E002E40E945A04002305
:140DC000B1F44091760155274130E0E05E0729F04230E0E0D5
:140DD4005E0731F010C00DE912E00E941A030BC00BE712E05F
:140DE8000E941A0306C072DF0EE812E00E941A03D1CF27961D
:140DFC005991499108950E94230D2A9780E08A838B838C8365
:140E10008D8380E08E838F838887898779C38091C2058A3549
:140E240009F018C18091C305853019F0863009F011C14091FF
:140E3800C40555274031E0E05E07A9F180E190E08417950729
:140E4C0074F04130E0E05E0781F04230E0E05E07D1F043305C
:140E6000E0E05E0709F4C1C0C5C04033E0E05E0709F4AAC057
:140E7400BFC025EC35E002E511E00E94DE0C02E511E0BDDEEE
:140E88000DE912E00E941A03B1C025EC35E00BE511E00E9495
:140E9C00DE0C0BE511E0D3DE0DE912E00E941A03A3C00E941A
:140EB000260B01E612E00E941A0307E412E00E941A030DE2DA
:140EC40012E00E941A0303E112E00E941A0309EF11E00E9449
:140ED8001A0343E065C082EC95E0E42FFF27E80FF91F608195
:140EEC0077276130E0E07E070CF457C08EE090E0861797074E
:140F00000CF451C08CE890E0FB013197EE0FFF1FE80FF91FFA
:140F140027903690F101099421E004E50E94600B40C022E0C4
:140F280004E50E94600B3BC023E004E50E94600B36C024E0D1
:140F3C0004E50E94600B31C021E004E50E94B20B2CC022E083
:140F500004E50E94B20B27C023E004E50E94B20B22C021E030
:140F640004E50E94FC0B1DC022E004E50E94FC0B18C021E09D
:140F780004E50E94360C13C022E004E50E94360C0EC021E027
:140F8C0004E50E94700C09C022E004E50E94700C04C023E0B1
:140FA00004E50E94700C4395413108F498CF85E08093C30549
:140FB40002EC15E00E94300380E08A838B838C838D8316C001
:140FC8000E94260B0BE712E00E941A0382E08093760185E04E
:140FDC008093C30502EC15E00E94300305C080E08A838B832E
:140FF0008C838D832090AF05222021F00FED11E00E941A036B
:141004002090B005222021F005EC11E00E941A032090B10519
:14101800222021F00BEA11E00E941A032090B205222021F012
:14102C0001E911E00E941A032090B305222021F007E711E07C
:141040000E941A038EE190E0998388832227332702EC15E051
:141054000E94C60C809158068A3509F00CC260915906772731
:141068006032E0E07E0709F48FC080E290E086179707BCF098
:14107C006130E0E07E0749F16230E0E07E0761F16130E0E0D6
:141090007E070CF4BBC16F30E0E07E0709F4B4C16031E0E0A4
:1410A4007E0729F1B1C16034E0E07E0709F40CC180E490E0B0
:1410B8008617970734F06033E0E07E0709F4B3C0A1C1603586
:1410CC00E0E07E0709F44BC19BC12AE536E004E611E00E94C4
:1410E000DE0C94C12AE536E00DE611E00E94DE0C8DC144276F
:1410F4000FC08AE596E0E42FFF27E80FF91F8081813329F41A
:14110800242F2F5F03E50E94600B4395443078F381E08883DA
:14111C002091B4050091AF050E943C0B44271DC061E017C0C7
:1411300089EB95E0E42FFF27E80FF91F2080261669F48CE0D5
:1411440091E0E62FFF273197EE0FFF1FE80FF91F00811181E6
:141158000E941A03639584E0861730F74395443008F389E0F4
:14116C0090E0998388832227332709EB15E00E94C60C81E077
:1411800088832091B40500270E943C0B70DD3EC144270FC050
:141194008AE596E0E42FFF27E80FF91F8081813329F4242FF5
:1411A8002F5F03E50E94FC0B4395423078F388E0888320913B
:1411BC00B6050091B1050E943C0B44271DC068E017C089EB59
:1411D00095E0E42FFF27E80FF91F2080261669F48CE091E038
:1411E400E62FFF273197EE0FFF1FE80FF91F008111810E9415
:1411F8001A03639589E0861730F74395423008F389E090E083
:14120C00998388832227332709EB15E00E94C60C88E0888334
:141220002091B60500270E943C0B21DDEFC044270FC08AE5E8
:1412340096E0E42FFF27E80FF91F8081813329F4242F2F5F35
:1412480003E50E94B20B4395433078F385E088832091B505BA
:14125C000091B0050E943C0B44271DC065E017C089EB95E002
:14127000E42FFF27E80FF91F2080261669F48CE091E0E62FF7
:14128400FF273197EE0FFF1FE80FF91F008111810E941A036C
:14129800639587E0861730F74395433008F389E090E09983E4
:1412AC0088832227332709EB15E00E94C60C85E08883209102
:1412C000B50500270E943C0BD2DCA0C044270FC08AE596E023
:1412D400E42FFF27E80FF91F8081813329F4242F2F5F03E523
:1412E8000E94700C4395433078F38CE088832091B8050091A8
:1412FC00B3050E943C0B44271DC06CE017C089EB95E0E42FD6
:14131000FF27E80FF91F2080261669F48CE091E0E62FFF2743
:141324003197EE0FFF1FE80FF91F008111810E941A036395F9
:141338008EE0861730F74395433008F389E090E09983888329
:14134C002227332709EB15E00E94C60C8CE088832091B805A8
:1413600000270E943C0B83DC51C044270FC08AE596E0E42FC7
:14137400FF27E80FF91F8081813329F4242F2F5F03E50E94F3
:14138800360C4395423078F38AE088832091B7050091B20530
:14139C000E943C0B44271DC06AE017C089EB95E0E42FFF27C9
:1413B000E80FF91F2080261669F48CE091E0E62FFF27319701
:1413C400EE0FFF1FE80FF91F008111810E941A0363958BE0B6
:1413D800861730F74395423008F389E090E0998388832227AF
:1413EC00332709EB15E00E94C60C8AE088832091B70500272D
:141400000E943C0B34DC02C00E94260B22E531E004E611E057
:141414000E94D10C0030010781F42BE531E00DE611E00E94F1
:14142800D10C0030010739F40BE712E00E941A0382E0809356
:14143C0076018EE190E0998388832227332708E516E00E94F7
:14145000C60C89E090E099838883222733270DE611E00E948D
:14146400C60C89E090E0998388832227332709EB15E00E9474
:14147800C60C80EE93E9A4E0B0E02E803F80488459848215E3
:14148C009305A405B50550F480E08E838F83888789870AE47D
:1414A00011E00E94300310C081E090E0A0E0B0E02E803F8054
:1414B40048845984280E391E4A1E5B1E2E823F8248865986EF
:1414C80080E492E4AFE0B0E02A803B804C805D8082159305DA
:1414DC00A405B50538F480E08A838B838C838D834FDC10C0D8
:1414F00081E090E0A0E0B0E02A803B804C805D80280E391E6C
:141504004A1E5B1E2A823B824C825D8286CC2A960C94280DF5
:14151800CEDB73CC8AB385658ABB87B3856587BB84B38565E4
:14152C0084BB809161008560809361008BB385658BBB88B3F8
:14154000856588BB85B3856585BB809162008560809362003B
:1415540008950FEF1FEF09C000000000000000000000000011
:14156800000000000000C80101978C010030010789F708952C
:14157C000E943B0D65E070E0AB018FEF8093610084BB87BBBD
:141590008ABB59C081E08BBBAA240EC02BB2220C220C2BBA88
:1415A40001C0D7DFCA010197AC0180308907C9F7AB01A394C9
:1415B8008A2D853078F381E088BBAA240EC028B2220C220CD2
:1415CC0028BA01C0C2DFCA010197AC0180308907C9F7AB010B
:1415E000A3948A2D853078F381E085BBAA240FC025B2220CA6
:1415F400220C25BA01C0ADDFCA0101976C01AC0180308907CC
:14160800C1F7AB01A3948A2D853070F381E080936200AA24C0
:14161C0011C020906200220C220C2092620001C094DFCA0168
:1416300001976C01AC0180308907C1F7AB01A3948A2D8530AD
:1416440060F3A6CF0C94440D22242092B2052092B30520920E
:14165800B0052092B1052092AF052092B7052092B80520926C
:14166C00B5052092B6052092B40552CF0E940E0DA22EE02E1C
:14168000CA8466272E2C2A24A22C442715C00A2D142F0E94A9
:14169400530D802F817069F0262E332421016F5F2C2C240EC4
:1416A80089EB95E0E42DFF27E80FF91F20824395483048F3D2
:1416BC000C94030D0E942D0D422F602F643529F5142F115033
:1416D00001E00E944D0D2090AF05202A2092AF05A42EBB2464
:1416E400C5018130E0E09E0769F08230E0E09E0759F08330AA
:1416F800E0E09E0749F08430E0E09E0739F007C0D89805C002
:14170C00DA9803C0DC9801C0DE98633519F5142F115001E0BE
:141720000E944D0D2090B405202A2092B40555274130E0E0EE
:141734005E0769F04230E0E05E0759F04330E0E05E0749F032
:141748004430E0E05E0739F007C0D89A05C0DA9A03C0DC9A20
:14175C0001C0DE9A0C94340D0E942D0D422F602F643519F5DC
:14177000142F115001E00E944D0D2090B005202A2092B005CE
:14178400A42EBB24C5018130E0E09E0769F08230E0E09E0754
:1417980059F08330E0E09E0749F08430E0E09E0731F005C0A4
:1417AC00C09803C0C29801C0C4986335E9F4142F115001E09D
:1417C0000E944D0D2090B505202A2092B50555274130E0E04C
:1417D4005E0749F04230E0E05E0739F04330E0E05E0729F0F2
:1417E80005C0C09A03C0C29A01C0C49A0C94340D0E942D0DD3
:1417FC00422F602F6435C9F4142F115001E00E944D0D209052
:14181000B105202A2092B105A42EBB24C5018130E0E09E07CF
:1418240029F08230E0E09E0719F003C0C69801C0A8986335BD
:14183800B9F4142F115001E00E944D0D2090B605202A209207
:14184C00B60555274130E0E05E0729F04230E0E05E0719F002
:1418600003C0C69A01C0A89A0C94340D0E942D0D422F602F91
:141874006435C9F4142F115001E00E944D0D2090B205202AD8
:141888002092B205A42EBB24C5018130E0E09E0729F082308B
:14189C00E0E09E0719F003C0AA9801C0AC986335B9F4142F38
:1418B000115001E00E944D0D2090B705202A2092B705552746
:1418C4004130E0E05E0729F04230E0E05E0719F003C0AA9ABA
:1418D80001C0AC9A0C94340D0E942D0D422F602F643539F571
:1418EC00142F115001E00E944D0D2090B305202A2092B3054B
:14190000A42EBB24C5018130E0E09E0749F08230E0E09E07F6
:1419140039F08330E0E09E0749F00DC0AE980BC080916200F4
:141928008E7F8093620005C0809162008B7F809362006335DA
:14193C0029F5142F115001E00E944D0D2090B805202A20928F
:14195000B80555274130E0E05E0749F04230E0E05E0739F0BB
:141964004330E0E05E0749F00DC0AE9A0BC08091620081606A
:141978008093620005C0809162008460809362000C94340D74
:14198C00888199818030890729F0E02FF12F21930197E9F770
:1419A0000895E02FF12FA22FB32F01911D91011B19F4112317
:1419B400D1F70027110B0895A02FB12FE22FF32F01900D9265
:1419C8000020E1F70895689401C0E894EA92FA928A93EE2406
:1419DC00FF2480E1000F111FEE1CFF1CE216F30618F0E21A1A
:1419F000F30A03958A95A1F716F40E2D1F2D8991F990E990EA
:141A04000895A990B990C990D990E990F9904991599169912D
:141A1800799108957A936A935A934A93FA92EA92DA92CA926F
:141A2C00BA92AA9208955A934A93BA92AA920895A990B99010
:141A40004991599108957A936A935A934A93089549915991FC
:141A54006991799108957A936A935A934A93BA92AA920895E4
:141A6800A990B990499159916991799108957A936A935A938C
:141A7C004A93DA92CA92BA92AA920895A990B990C990D99048
:141A900049915991699179910895112319F0000F1A95FBCF18
:0E1AA4000895112319F006951A95FBCF0895A9
:00000001FF
