:040000000C94B502A5
:040048000C947C0593
:040078000C940606D8
:14008C00C609CB09D009D509DA09DF09E409E909EE09F30969
:1400A000F809FD09020A070A00000000000000000000000028
:1400B40000000000000000000000006263640061626300A544
:1400C8000588056B054E052E050E05EE04D104B404950476FB
:1400DC00045A043E04220415040A04E603DB03A9038A0379A6
:1400F000036A0350033D032E0321030E03FC02E602D602CA0B
:14010400025A030340404040003030303030303030003030A5
:14011800303030303030003030303030303030003030303073
:14012C003030303000006465766963655F73656C6563742E82
:1401400078796A2E7478743D223122006465766963655F73CE
:14015400656C6563742E7864672E7478743D22312200646510
:14016800766963655F73656C6563742E77626C2E7478743DBF
:14017C00223122006465766963655F73656C6563742E6466B3
:14019000622E7478743D223122006465766963655F73656CA6
:1401A4006563742E6466732E7478743D2231220064657669B8
:1401B80063655F73656C6563742E78796A2E7478743D2230E6
:1401CC0022006465766963655F73656C6563742E7864672E0F
:1401E0007478743D223022006465766963655F73656C65631F
:1401F400742E77626C2E7478743D2230220064657669636561
:140208005F73656C6563742E6466622E7478743D223022006A
:14021C006465766963655F73656C6563742E6466732E7478FA
:14023000743D2230220070616765206465766963655F736531
:140244006C6563740070616765207265636F6E6E6563740080
:1402580070616765206D61696E007061676520636F6E6E6560
:14026C006374696E670061742B7265636F6E6E3D31006174A1
:140280002B6E65745F636F6D6D69743D310061742B7561725A
:14029400747061636B74696D656F75743D31300061742B7529
:1402A8006172747061636B6C656E3D36340061742B7561722E
:1402BC00743D393630302C382C6E2C310061742B74696D65A4
:1402D0006F75743D300061742B434C706F72743D31323334FA
:1402E4000061742B72656D6F7465706F72743D3830383800A0
:1402F80061742B72656D6F746569703D3139322E3136382EB9
:14030C00302E3130330061742B6D6F64653D636C69656E748A
:140320000061742B72656D6F746570726F3D74637000617493
:140334002B6E65745F646E733D3139322E3136382E302E313C
:140348002C302E302E302E300061742B6E65745F69703D313E
:14035C0039322E3136382E302E3231342C3235352E323535A0
:140370002E3235352E302C3139322E3136382E302E3100619E
:14038400742B64686370633D300061742B776966695F636F77
:140398006E663D475441323031372C6175746F2C677461311C
:1403AC0031343630350061742B64686370643D300061742BCD
:1403C0006E65746D6F64653D32007265735F786979696A698F
:1403D4002E78796A5F726573332E7478743D2230220072659A
:1403E800735F786979696A692E78796A5F726573322E74781B
:1403FC00743D223022007265735F786979696A692E78796A00
:140410005F726573312E7478743D223022007265735F786935
:14042400616F64756775692E7864675F726573322E747874FC
:140438003D223022007265735F7869616F64756775692E78E1
:14044C0064675F726573312E7478743D223022007265735F0F
:14046000776569626F6C752E77626C5F726573322E747874B5
:140474003D223022007265735F776569626F6C752E77626CB0
:140488005F726573312E7478743D223022007265735F6469D1
:14049C00616E66616E62616F2E6466625F726573332E7478C6
:1404B000743D223022007265735F6469616E66616E62616F67
:1404C4002E6466625F726573322E7478743D223022007265D9
:1404D800735F6469616E66616E62616F2E6466625F72657338
:1404EC00312E7478743D223022007265735F66656E67736868
:14050000616E2E66735F726573342E7478743D223022007283
:1405140065735F66656E677368616E2E66735F726573332E41
:140528007478743D223022007265735F66656E677368616EBB
:14053C002E66735F726573322E7478743D2230220072657340
:140550005F66656E677368616E2E66735F726573312E7478F3
:14056400743D22302200CFEFD0E1CDBFDEBFCE51D0400AEAA3
:1405780008830024E2ECF5E017E0EC32F10711F00192FBCFB2
:14058C000083E8EAF0E0A0E0B1E015E000E00BBFEA36F1076E
:1405A00021F0C89531960D92F9CF0E94C40CFFCF8AB3856544
:1405B4008ABB87B3856587BB84B3856584BB809161008560D1
:1405C800809361008BB385658BBB88B3856588BB85B38565B3
:1405DC0085BB8091620085608093620008950FEF1FEF09C08C
:1405F000000000000000000000000000000000000000C8012E
:1406040001978C010030010789F708950E943B0D65E070E0E9
:14061800AB018FEF8093610084BB87BB8ABB59C081E08BBBAA
:14062C00AA240EC02BB2220C220C2BBA01C0D7DFCA01019726
:14064000AC0180308907C9F7AB01A3948A2D853078F381E0DE
:1406540088BBAA240EC028B2220C220C28BA01C0C2DFCA016E
:140668000197AC0180308907C9F7AB01A3948A2D853078F37F
:14067C0081E085BBAA240FC025B2220C220C25BA01C0ADDFCD
:14069000CA0101976C01AC0180308907C1F7AB01A3948A2D47
:1406A400853070F381E080936200AA2411C020906200220C75
:1406B800220C2092620001C094DFCA0101976C01AC0180308B
:1406CC008907C1F7AB01A3948A2D853060F3A6CF0C94440DCA
:1406E000222420920301209204012092010120920201209238
:1406F400000120920801209209012092060120920701209255
:14070800050152CF0E940E0DA22EE02ECA8466272E2C2A2498
:14071C00A22C442715C00A2D142F0E94530D802F817069F046
:14073000262E332421016F5F2C2C240E8AE091E0E42DFF277E
:14074400E80FF91F20824395483048F30C94030D0E942D0DD9
:14075800422F602F643529F5142F115001E00E944D0D2090A5
:14076C000001202A20920001A42EBB24C5018130E0E09E07EE
:1407800069F08230E0E09E0759F08330E0E09E0749F08430A7
:14079400E0E09E0739F007C0D89805C0DA9803C0DC9801C05D
:1407A800DE98633519F5142F115001E00E944D0D20900501EA
:1407BC00202A2092050155274130E0E05E0769F04230E0E08A
:1407D0005E0759F04330E0E05E0749F04430E0E05E0739F0D4
:1407E40007C0D89A05C0DA9A03C0DC9A01C0DE9A0C94340D3C
:1407F8000E942D0D422F602F643519F5142F115001E00E9443
:14080C004D0D20900101202A20920101A42EBB24C5018130A6
:14082000E0E09E0769F08230E0E09E0759F08330E0E09E078E
:1408340049F08430E0E09E0731F005C0C09803C0C29801C042
:14084800C4986335E9F4142F115001E00E944D0D2090060193
:14085C00202A2092060155274130E0E05E0749F04230E0E008
:140870005E0739F04330E0E05E0729F005C0C09A03C0C29AF7
:1408840001C0C49A0C94340D0E942D0D422F602F6435C9F42E
:14089800142F115001E00E944D0D20900201202A2092020119
:1408AC00A42EBB24C5018130E0E09E0729F08230E0E09E077B
:1408C00019F003C0C69801C0A8986335B9F4142F115001E02F
:1408D4000E944D0D20900701202A2092070155274130E0E0AB
:1408E8005E0729F04230E0E05E0719F003C0C69A01C0A89AB8
:1408FC000C94340D0E942D0D422F602F6435C9F4142F115031
:1409100001E00E944D0D20900301202A20920301A42EBB2491
:14092400C5018130E0E09E0729F08230E0E09E0719F003C0E7
:14093800AA9801C0AC986335B9F4142F115001E00E944D0D9E
:14094C0020900801202A2092080155274130E0E05E0729F0AE
:140960004230E0E05E0719F003C0AA9A01C0AC9A0C94340DF4
:140974000E942D0D422F602F643539F5142F115001E00E94A5
:140988004D0D20900401202A20920401A42EBB24C501813023
:14099C00E0E09E0749F08230E0E09E0739F08330E0E09E0751
:1409B00049F00DC0AE980BC0809162008E7F8093620005C062
:1409C400809162008B7F80936200633529F5142F115001E0F2
:1409D8000E944D0D20900901202A2092090155274130E0E0A2
:1409EC005E0749F04230E0E05E0739F04330E0E05E0749F0C8
:140A00000DC0AE9A0BC08091620081608093620005C0809163
:140A140062008460809362000C94340D0E94230D4427552779
:140A28000BC06627772702C06F5F7F4F6537E4E07E07D0F3BE
:140A3C004F5F5F4F4017510790F30C94280D222420922B0719
:140A50002AB82BB886E08093950084E389B92092900088E963
:140A64008AB90895222420922A0720929A0020929B0086E076
:140A780080939D0084E3809399002092980088E980939A003F
:140A8C0008955D9BFECF0CB9089520909B0025FEFCCF0093C6
:140AA0009C0008954A935A93A80105C0FA010081EEDF4F5FDA
:140AB4005F4FFA0120802220B9F70FEFE6DF0FEFE4DF0FEF71
:140AC800E2DF5991499108954A935A93A80105C0FA01008144
:140ADC00DCDF4F5F5F4FFA0120802220B9F70DE0D4DF0AE0D8
:140AF000D2DF5991499108950A921A922A923A924A925A9248
:140B04006A927A928A929A920A931A932A933A938A939A936F
:140B1800AA93BA93EA93FA930FB60A920E942D0D2297A0900F
:140B2C002B074CB16BB1862F887109F04FC08CE120902B0765
:140B4000821560F04A3009F039C08BE097E0EA2DFF27E80F38
:140B5400F91F80818D3081F5222420922B078BE097E0EA2D1E
:140B6800FF27E80FF91F208265E010C00EE1162F01038CE1E8
:140B7C0096E09001280F391F8AE396E08001080F191F0E947A
:140B9000DE0C6A9581E0861768F32CE037E008E516E00E9467
:140BA400DE0C8EE190E099838883222733270CE017E00E9425
:140BB800C60C0EC020902B073324822D8F5F80932B078CE002
:140BCC0097E0E22DFF27E80FF91F408322960E94340D099063
:140BE0000FBEF991E991B991A991999189913991299119913A
:140BF400099199908990799069905990499039902990199022
:140C0800099018950A921A922A923A924A925A926A927A92F2
:140C1C008A929A920A931A932A933A938A939A93AA93BA93D4
:140C3000EA93FA930FB60A920E942D0D2297A0902A0740917E
:140C44009C0060919B00862F887109F04FC08CE120902A0770
:140C5800821560F04A3009F039C08DEE96E0EA2DFF27E80F10
:140C6C00F91F80818D3081F5222420922A078DEE96E0EA2DF7
:140C8000FF27E80FF91F208265E010C00EE1162F010386E8CE
:140C940095E09001280F391F84EA95E08001080F191F0E9462
:140CA800DE0C6A9581E0861768F32EEE36E002EC15E00E943F
:140CBC00DE0C8EE190E099838883222733270EEE16E00E94FD
:140CD000C60C0EC020902A073324822D8F5F80932A078EEEDB
:140CE40096E0E22DFF27E80FF91F408322960E94340D09904B
:140CF8000FBEF991E991B991A9919991899139912991199121
:140D0C00099199908990799069905990499039902990199008
:140D2000099018953A932A930E940E0D602F2297A888EA8848
:140D3400FB88CC8841E004E610E070DE613409F03FC01FC01F
:140D48008EE190E099838883222733270EE11A2D0103800133
:140D5C0088E596E0080F191F0E94C60C0C851D859BDE8701A9
:140D700057DE43952C2C3324442E55242414350414F401E06E
:140D840065C00EE11A2D0103900188E596E0280F391F0E8566
:140D98001F850E94D10C0030010791F68EE190E0998388835F
:140DAC00222733270EE11A2D0103800188E596E0080F191FA3
:140DC0000E94C60C623409F03FC01FC08EE190E09983888338
:140DD400222733270EE11A2D0103800182EC95E0080F191F7B
:140DE8000E94C60C0C851D856FDE870115DE43952C2C332401
:140DFC00442E55242414350414F401E023C00EE11A2D010381
:140E1000900182EC95E0280F391F0E851F850E94D10C0030E5
:140E2400010791F68EE190E099838883222733270EE11A2D4C
:140E38000103800182EC95E0080F191F0E94C60C04E610E0A1
:140E4C00E9DD002722960E94030D229608953A932A930E94BA
:140E60000E0DE02E2297A888CA88DB8841E050E068EC70E0C2
:140E740004E610E0D3DD8E2D813481F50C851D850FDE0DC00D
:140E88008B01CADD9B0186010E94E90C0417150710F401E04D
:140E9C0058C04F5F5F4F0EE11A2D0103900188E596E0280FE9
:140EB000391F0E851F850E94D10C0030010721F78EE190E0F1
:140EC40099838883222733270EE11A2D0103800188E596E0B2
:140ED800080F191F0E94C60C8E2D823481F50C851D85F2DD5A
:140EEC000DC08B0197DD9B0186010E94E90C0417150710F430
:140F000001E025C04F5F5F4F0EE11A2D0103900182EC95E00D
:140F1400280F391F0E851F850E94D10C0030010721F78EE1C5
:140F280090E099838883222733270EE11A2D0103800182EC52
:140F3C0095E0080F191F0E94C60C04E610E06ADD0027229669
:140F50000E94030D22960895789477DD85CDAA922697A090AB
:140F64002A07789470DD7EDD88E293E29D838C8322242A8294
:140F780087E191E0998388832BE131E002E469DF14C0A09016
:140F8C002B078CEE96E0EA2DFF27E80FF91F00817CDD0AE31C
:140FA00016E096DD04EF11E03BDD2090EE06222001F0EBCF47
:140FB4002696A9900895000000000000000000000000000097
:140FC800000000000000000000000000000000000000000015
:140FDC0000000895ECDFEBDFEACFFCDFFBDFFADFF9DFF8CFE9
:140FF000FADFF9DFE2CFFCDFFBDFFADFF9DFF8DFF7DFF6DFA3
:14100400F5DFF4DFF3CF4A935A93A80101C0F1DF1A014150BF
:1410180050402220D1F73320C1F7599149910895E199FECF77
:14102C00202E33243FBA2EBA2DBBE29AE19A0895E199FECF67
:14104000202E33243FBA2EBAE09A0DB308950E94190D58011E
:14105400442709C0042F005FEFDFE42FFF27EA0DFB1D008329
:1410680043954830A8F30C941E0D0E94190D5801442709C069
:14107C00E42FFF27EA0DFB1D2081042F005FCEDF43954830E8
:14109000A8F30C941E0D0E94190D5801442709C0042F005E00
:1410A400CBDFE42FFF27EA0DFB1D008343954830A8F30C9438
:1410B8001E0D0E94190D5801442709C0E42FFF27EA0DFB1D5C
:1410CC002081042F005EAADF43954830A8F30C941E0D4A93C2
:1410E000442710C08AE091E0E42FFF27E80FF91F20802220BC
:1410F40031F4E42FFF27E80FF91F80E480834395443070F365
:141108000AE50E944B0503E00E944B0500E20E944B050AE05F
:14111C0011E00E946805499108950E94AC070AEB12E00E946A
:1411300052050E94700336D005E611E088DF0EE611E0A9CF99
:141144004A93442707C00BE20E944B0504E610E05ADF4395BE
:141158004E31B8F344270DC08BE391E0E42FFF27EE0FFF1FEE
:14116C00E80FF91F008111810E9468054395413188F304EF86
:1411800011E043DF0AEC12E00E94680504EF11E03CDF0AEC5C
:1411940012E00E94680504EF11E035DF4991089527970AEB24
:1411A80012E00E94520522242092890120C08AE08E838CEDF2
:1411BC0095E09D838C8322242A828DE591E0998388832DE56D
:1411D00031E002E40E949206002341F400EB12E00E945205AC
:1411E40081E08093890106C0ABDF0AEB12E00E945205DFCF1B
:1411F800279608954A935A93279701EA12E00E9452052EC03D
:14120C0086E08E8388EE93E09D838C8322242A828DE591E06A
:14122000998388832DE531E002E40E9492060023B1F44091B7
:14123400890155274130E0E05E0729F04230E0E05E0731F039
:1412480010C000EB12E00E9452050BC00EE812E00E94520540
:14125C0006C072DF01EA12E00E945205D1CF27965991499170
:1412700008950E94230D2A9780E08A838B838C838D8380E040
:141284008E838F838887898779C38091C2058A3509F018C16F
:141298008091C305833019F0863009F011C14091C405552716
:1412AC004031E0E05E07A9F180E190E08417950774F0413021
:1412C000E0E05E0781F04230E0E05E07D1F04330E0E05E0794
:1412D40009F4C1C0C5C04033E0E05E0709F4AAC0BFC025EC74
:1412E80035E005E611E00E94DE0C05E611E0BDDE00EB12E021
:1412FC000E945205B1C025EC35E00EE611E00E94DE0C0EE6E9
:1413100011E0D3DE00EB12E00E945205A3C00E94700304E7EE
:1413240012E00E9452050AE512E00E94520500E412E00E9478
:14133800520506E212E00E9452050CE012E00E94520543E07D
:14134C0065C082EC95E0E42FFF27E80FF91F6081772761302D
:14136000E0E07E070CF457C08EE090E0861797070CF451C0F3
:141374008CE890E0FB013197EE0FFF1FE80FF91F2790369016
:14138800F101099421E004E50E94AA0340C022E004E50E94FC
:14139C00AA033BC023E004E50E94AA0336C024E004E50E94D5
:1413B000AA0331C021E004E50E94FC032CC022E004E50E9487
:1413C400FC0327C023E004E50E94FC0322C021E004E50E9434
:1413D80046041DC022E004E50E94460418C021E004E50E949F
:1413EC00800413C022E004E50E9480040EC021E004E50E942B
:14140000BA0409C022E004E50E94BA0404C023E004E50E94B4
:14141400BA044395413108F498CF83E08093C30502EC15E038
:141428000E94680580E08A838B838C838D8316C00E9470031C
:14143C000EE812E00E94520582E08093890183E08093C3057E
:1414500002EC15E00E94680505C080E08A838B838C838D8337
:1414640020900001222021F002EF11E00E94520520900101E3
:14147800222021F008ED11E00E94520520900201222021F028
:14148C000EEB11E00E94520520900301222021F004EA11E083
:1414A0000E94520520900401222021F00AE811E00E9452055B
:1414B4008EE190E0998388832227332702EC15E00E94C60C24
:1414C800809158068A3509F00CC26091590677276032E0E0DB
:1414DC007E0709F48FC080E290E086179707BCF06130E0E021
:1414F0007E0749F16230E0E07E0761F16130E0E07E070CF42A
:14150400BBC16F30E0E07E0709F4B4C16031E0E07E0729F111
:14151800B1C16034E0E07E0709F40CC180E490E0861797079B
:14152C0034F06033E0E07E0709F4B3C0A1C16035E0E07E0703
:1415400009F44BC19BC12AE536E007E711E00E94DE0C94C14D
:141554002AE536E000E811E00E94DE0C8DC144270FC08AE502
:1415680096E0E42FFF27E80FF91F8081813329F4242F2F5FFE
:14157C0003E50E94AA034395443078F381E08883209105014A
:14159000009100010E94860344271DC061E017C08AE091E04F
:1415A400E42FFF27E80FF91F2080261669F48FE191E0E62FBC
:1415B800FF273197EE0FFF1FE80FF91F008111810E945205FB
:1415CC00639584E0861730F74395443008F389E090E09983AF
:1415E0008883222733270AE011E00E94C60C81E088832091DD
:1415F400050100270E94860370DD3EC144270FC08AE596E020
:14160800E42FFF27E80FF91F8081813329F4242F2F5F03E5EB
:14161C000E9446044395423078F388E088832091070100915C
:1416300002010E94860344271DC068E017C08AE091E0E42F23
:14164400FF27E80FF91F2080261669F48FE191E0E62FFF2708
:141658003197EE0FFF1FE80FF91F008111810E945205639588
:14166C0089E0861730F74395423008F389E090E099838883F8
:14168000222733270AE011E00E94C60C88E088832091070138
:1416940000270E94860321DDEFC044270FC08AE596E0E42F11
:1416A800FF27E80FF91F8081813329F4242F2F5F03E50E94BC
:1416BC00FC034395433078F385E088832091060100910101AA
:1416D0000E94860344271DC065E017C08AE091E0E42FFF2763
:1416E400E80FF91F2080261669F48FE191E0E62FFF273197C6
:1416F800EE0FFF1FE80FF91F008111810E945205639587E049
:14170C00861730F74395433008F389E090E099838883222776
:1417200033270AE011E00E94C60C85E08883209106010027BD
:141734000E948603D2DCA0C044270FC08AE596E0E42FFF2710
:14174800E80FF91F8081813329F4242F2F5F03E50E94BA0483
:14175C004395433078F38CE0888320910901009104010E9459
:14177000860344271DC06CE017C08AE091E0E42FFF27E80F66
:14178400F91F2080261669F48FE191E0E62FFF273197EE0F1F
:14179800FF1FE80FF91F008111810E94520563958EE0861701
:1417AC0030F74395433008F389E090E0998388832227332719
:1417C0000AE011E00E94C60C8CE088832091090100270E94CB
:1417D400860383DC51C044270FC08AE596E0E42FFF27E80FB9
:1417E800F91F8081813329F4242F2F5F03E50E94800443953C
:1417FC00423078F38AE0888320910801009103010E9486030D
:1418100044271DC06AE017C08AE091E0E42FFF27E80FF91F38
:141824002080261669F48FE191E0E62FFF273197EE0FFF1F78
:14183800E80FF91F008111810E94520563958BE0861730F75A
:14184C004395423008F389E090E099838883222733270AE0B6
:1418600011E00E94C60C8AE088832091080100270E9486038E
:1418740034DC02C00E94700325E631E007E711E00E94D10CFF
:141888000030010781F42EE631E000E811E00E94D10C0030F2
:14189C00010739F40EE812E00E94520582E0809389018EE1B4
:1418B00090E0998388832227332708E516E00E94C60C89E02A
:1418C40090E0998388832227332700E811E00E94C60C89E020
:1418D80090E099838883222733270AE011E00E94C60C80EE05
:1418EC0093E9A4E0B0E02E803F804884598482159305A4056A
:14190000B50550F480E08E838F83888789870DE511E00E94AE
:14191400680510C081E090E0A0E0B0E02E803F80488459848B
:14192800280E391E4A1E5B1E2E823F824886598680E894E83B
:14193C00AEE1B0E02A803B804C805D8082159305A405B505D8
:1419500038F480E08A838B838C838D834FDC10C081E090E0F1
:14196400A0E0B0E02A803B804C805D80280E391E4A1E5B1EE3
:141978002A823B824C825D8286CC2A960C94280DCEDB73CC76
:14198C00888199818030890729F0E02FF12F21930197E9F770
:1419A0000895E02FF12FA22FB32F01911D91011B19F4112317
:1419B400D1F70027110B0895A02FB12FE22FF32F01900D9265
:1419C8000020E1F70895689401C0E894EA92FA928A93EE2406
:1419DC00FF2480E1000F111FEE1CFF1CE216F30618F0E21A1A
:1419F000F30A03958A95A1F716F40E2D1F2D8991F990E990EA
:141A04000895A990B990C990D990E990F9904991599169912D
:141A1800799108957A936A935A934A93FA92EA92DA92CA926F
:141A2C00BA92AA9208955A934A93BA92AA920895A990B99010
:141A40004991599108957A936A935A934A93089549915991FC
:141A54006991799108957A936A935A934A93BA92AA920895E4
:141A6800A990B990499159916991799108957A936A935A938C
:141A7C004A93DA92CA92BA92AA920895A990B990C990D99048
:141A900049915991699179910895112319F0000F1A95FBCF18
:0E1AA4000895112319F006951A95FBCF0895A9
:00000001FF
